{
  "_format": "hh-sol-artifact-1",
  "contractName": "TokenOfLove",
  "sourceName": "contracts/Love.sol",
  "abi": [
    {
      "inputs": [
        {
          "internalType": "string",
          "name": "name_",
          "type": "string"
        },
        {
          "internalType": "string",
          "name": "symbol_",
          "type": "string"
        }
      ],
      "stateMutability": "nonpayable",
      "type": "constructor"
    },
    {
      "anonymous": false,
      "inputs": [
        {
          "indexed": true,
          "internalType": "address",
          "name": "owner",
          "type": "address"
        },
        {
          "indexed": true,
          "internalType": "address",
          "name": "spender",
          "type": "address"
        },
        {
          "indexed": false,
          "internalType": "uint256",
          "name": "value",
          "type": "uint256"
        }
      ],
      "name": "Approval",
      "type": "event"
    },
    {
      "anonymous": false,
      "inputs": [
        {
          "indexed": true,
          "internalType": "address",
          "name": "from",
          "type": "address"
        },
        {
          "indexed": true,
          "internalType": "address",
          "name": "to",
          "type": "address"
        },
        {
          "indexed": false,
          "internalType": "uint256",
          "name": "value",
          "type": "uint256"
        }
      ],
      "name": "Transfer",
      "type": "event"
    },
    {
      "inputs": [
        {
          "internalType": "address",
          "name": "",
          "type": "address"
        },
        {
          "internalType": "address",
          "name": "",
          "type": "address"
        }
      ],
      "name": "_allowances",
      "outputs": [
        {
          "internalType": "uint256",
          "name": "",
          "type": "uint256"
        }
      ],
      "stateMutability": "view",
      "type": "function"
    },
    {
      "inputs": [
        {
          "internalType": "address",
          "name": "friend1Address",
          "type": "address"
        },
        {
          "internalType": "address",
          "name": "friend2Address",
          "type": "address"
        }
      ],
      "name": "_mint",
      "outputs": [],
      "stateMutability": "nonpayable",
      "type": "function"
    },
    {
      "inputs": [
        {
          "internalType": "address",
          "name": "from",
          "type": "address"
        },
        {
          "internalType": "address",
          "name": "to",
          "type": "address"
        },
        {
          "internalType": "uint256",
          "name": "value",
          "type": "uint256"
        }
      ],
      "name": "_transfer",
      "outputs": [],
      "stateMutability": "nonpayable",
      "type": "function"
    },
    {
      "inputs": [
        {
          "internalType": "address",
          "name": "owner",
          "type": "address"
        },
        {
          "internalType": "address",
          "name": "spender",
          "type": "address"
        }
      ],
      "name": "allowance",
      "outputs": [
        {
          "internalType": "uint256",
          "name": "",
          "type": "uint256"
        }
      ],
      "stateMutability": "view",
      "type": "function"
    },
    {
      "inputs": [
        {
          "internalType": "address",
          "name": "spender",
          "type": "address"
        },
        {
          "internalType": "uint256",
          "name": "value",
          "type": "uint256"
        }
      ],
      "name": "approve",
      "outputs": [
        {
          "internalType": "bool",
          "name": "",
          "type": "bool"
        }
      ],
      "stateMutability": "nonpayable",
      "type": "function"
    },
    {
      "inputs": [
        {
          "internalType": "address",
          "name": "account",
          "type": "address"
        }
      ],
      "name": "balanceOf",
      "outputs": [
        {
          "internalType": "uint256",
          "name": "",
          "type": "uint256"
        }
      ],
      "stateMutability": "view",
      "type": "function"
    },
    {
      "inputs": [
        {
          "internalType": "address",
          "name": "",
          "type": "address"
        }
      ],
      "name": "balances",
      "outputs": [
        {
          "internalType": "uint256",
          "name": "",
          "type": "uint256"
        }
      ],
      "stateMutability": "view",
      "type": "function"
    },
    {
      "inputs": [],
      "name": "daysSinceEpoch",
      "outputs": [
        {
          "internalType": "uint256",
          "name": "",
          "type": "uint256"
        }
      ],
      "stateMutability": "nonpayable",
      "type": "function"
    },
    {
      "inputs": [
        {
          "internalType": "address",
          "name": "",
          "type": "address"
        }
      ],
      "name": "friends",
      "outputs": [
        {
          "internalType": "address",
          "name": "outgoing",
          "type": "address"
        },
        {
          "internalType": "address",
          "name": "friend",
          "type": "address"
        },
        {
          "internalType": "bool",
          "name": "hasFriend",
          "type": "bool"
        },
        {
          "internalType": "bool",
          "name": "thinkingAboutYou",
          "type": "bool"
        },
        {
          "internalType": "uint256",
          "name": "lastDayOfThinking",
          "type": "uint256"
        }
      ],
      "stateMutability": "view",
      "type": "function"
    },
    {
      "inputs": [],
      "name": "getHour",
      "outputs": [
        {
          "internalType": "uint256",
          "name": "",
          "type": "uint256"
        }
      ],
      "stateMutability": "nonpayable",
      "type": "function"
    },
    {
      "inputs": [],
      "name": "getMinute",
      "outputs": [
        {
          "internalType": "uint256",
          "name": "",
          "type": "uint256"
        }
      ],
      "stateMutability": "nonpayable",
      "type": "function"
    },
    {
      "inputs": [],
      "name": "getSecond",
      "outputs": [
        {
          "internalType": "uint256",
          "name": "",
          "type": "uint256"
        }
      ],
      "stateMutability": "nonpayable",
      "type": "function"
    },
    {
      "inputs": [],
      "name": "get_allowance",
      "outputs": [
        {
          "internalType": "uint256",
          "name": "",
          "type": "uint256"
        }
      ],
      "stateMutability": "view",
      "type": "function"
    },
    {
      "inputs": [
        {
          "internalType": "address",
          "name": "friendAddress",
          "type": "address"
        },
        {
          "internalType": "address",
          "name": "toBeFriendAddress",
          "type": "address"
        }
      ],
      "name": "makeFriend",
      "outputs": [],
      "stateMutability": "nonpayable",
      "type": "function"
    },
    {
      "inputs": [],
      "name": "name",
      "outputs": [
        {
          "internalType": "string",
          "name": "",
          "type": "string"
        }
      ],
      "stateMutability": "view",
      "type": "function"
    },
    {
      "inputs": [],
      "name": "symbol",
      "outputs": [
        {
          "internalType": "string",
          "name": "",
          "type": "string"
        }
      ],
      "stateMutability": "view",
      "type": "function"
    },
    {
      "inputs": [],
      "name": "thoughtOfThem",
      "outputs": [],
      "stateMutability": "nonpayable",
      "type": "function"
    },
    {
      "inputs": [],
      "name": "totalSupply",
      "outputs": [
        {
          "internalType": "uint256",
          "name": "",
          "type": "uint256"
        }
      ],
      "stateMutability": "view",
      "type": "function"
    },
    {
      "inputs": [
        {
          "internalType": "address",
          "name": "to",
          "type": "address"
        },
        {
          "internalType": "uint256",
          "name": "value",
          "type": "uint256"
        }
      ],
      "name": "transfer",
      "outputs": [
        {
          "internalType": "bool",
          "name": "",
          "type": "bool"
        }
      ],
      "stateMutability": "nonpayable",
      "type": "function"
    },
    {
      "inputs": [
        {
          "internalType": "address",
          "name": "from",
          "type": "address"
        },
        {
          "internalType": "address",
          "name": "to",
          "type": "address"
        },
        {
          "internalType": "uint256",
          "name": "value",
          "type": "uint256"
        }
      ],
      "name": "transferFrom",
      "outputs": [
        {
          "internalType": "bool",
          "name": "",
          "type": "bool"
        }
      ],
      "stateMutability": "nonpayable",
      "type": "function"
    },
    {
      "inputs": [
        {
          "internalType": "address",
          "name": "toBeFriendAddress",
          "type": "address"
        }
      ],
      "name": "weAreFriends",
      "outputs": [],
      "stateMutability": "nonpayable",
      "type": "function"
    },
    {
      "inputs": [],
      "name": "weCut",
      "outputs": [],
      "stateMutability": "nonpayable",
      "type": "function"
    }
  ],
  "bytecode": "0x608060405234801562000010575f80fd5b50604051620025bc380380620025bc8339818101604052810190620000369190620001e7565b8160049081620000479190620004a1565b508060059081620000599190620004a1565b50505062000585565b5f604051905090565b5f80fd5b5f80fd5b5f80fd5b5f80fd5b5f601f19601f8301169050919050565b7f4e487b71000000000000000000000000000000000000000000000000000000005f52604160045260245ffd5b620000c3826200007b565b810181811067ffffffffffffffff82111715620000e557620000e46200008b565b5b80604052505050565b5f620000f962000062565b9050620001078282620000b8565b919050565b5f67ffffffffffffffff8211156200012957620001286200008b565b5b62000134826200007b565b9050602081019050919050565b5f5b838110156200016057808201518184015260208101905062000143565b5f8484015250505050565b5f620001816200017b846200010c565b620000ee565b905082815260208101848484011115620001a0576200019f62000077565b5b620001ad84828562000141565b509392505050565b5f82601f830112620001cc57620001cb62000073565b5b8151620001de8482602086016200016b565b91505092915050565b5f80604083850312156200020057620001ff6200006b565b5b5f83015167ffffffffffffffff81111562000220576200021f6200006f565b5b6200022e85828601620001b5565b925050602083015167ffffffffffffffff8111156200025257620002516200006f565b5b6200026085828601620001b5565b9150509250929050565b5f81519050919050565b7f4e487b71000000000000000000000000000000000000000000000000000000005f52602260045260245ffd5b5f6002820490506001821680620002b957607f821691505b602082108103620002cf57620002ce62000274565b5b50919050565b5f819050815f5260205f209050919050565b5f6020601f8301049050919050565b5f82821b905092915050565b5f60088302620003337fffffffffffffffffffffffffffffffffffffffffffffffffffffffffffffffff82620002f6565b6200033f8683620002f6565b95508019841693508086168417925050509392505050565b5f819050919050565b5f819050919050565b5f62000389620003836200037d8462000357565b62000360565b62000357565b9050919050565b5f819050919050565b620003a48362000369565b620003bc620003b38262000390565b84845462000302565b825550505050565b5f90565b620003d2620003c4565b620003df81848462000399565b505050565b5b818110156200040657620003fa5f82620003c8565b600181019050620003e5565b5050565b601f82111562000455576200041f81620002d5565b6200042a84620002e7565b810160208510156200043a578190505b620004526200044985620002e7565b830182620003e4565b50505b505050565b5f82821c905092915050565b5f620004775f19846008026200045a565b1980831691505092915050565b5f62000491838362000466565b9150826002028217905092915050565b620004ac826200026a565b67ffffffffffffffff811115620004c857620004c76200008b565b5b620004d48254620002a1565b620004e18282856200040a565b5f60209050601f83116001811462000517575f841562000502578287015190505b6200050e858262000484565b8655506200057d565b601f1984166200052786620002d5565b5f5b82811015620005505784890151825560018201915060208501945060208101905062000529565b868310156200057057848901516200056c601f89168262000466565b8355505b6001600288020188555050505b505050505050565b61202980620005935f395ff3fe608060405234801561000f575f80fd5b5060043610610140575f3560e01c806370a08231116100b6578063b1d857861161007a578063b1d857861461038c578063c622194c14610396578063c87a950c146103b4578063cf1f0108146103d2578063d168d146146103ee578063dd62ed3e1461040c57610140565b806370a08231146102e85780638a1680431461031857806395d89b41146103225780639ab7e95a14610340578063a9059cbb1461035c57610140565b80631ddabf7a116101085780631ddabf7a146101fe57806323b872dd1461023257806327e235e31461026257806330e0789e1461029257806333e8c09f146102ae5780633fa34aab146102cc57610140565b8063024c2ddd1461014457806306fdde0314610174578063095ea7b31461019257806318160ddd146101c25780631b03316f146101e0575b5f80fd5b61015e60048036038101906101599190611778565b61043c565b60405161016b91906117ce565b60405180910390f35b61017c61045c565b6040516101899190611871565b60405180910390f35b6101ac60048036038101906101a791906118bb565b6104ec565b6040516101b99190611913565b60405180910390f35b6101ca61053a565b6040516101d791906117ce565b60405180910390f35b6101e8610543565b6040516101f591906117ce565b60405180910390f35b6102186004803603810190610213919061192c565b61058a565b604051610229959493929190611966565b60405180910390f35b61024c600480360381019061024791906119b7565b610612565b6040516102599190611913565b60405180910390f35b61027c6004803603810190610277919061192c565b610912565b60405161028991906117ce565b60405180910390f35b6102ac60048036038101906102a791906119b7565b610927565b005b6102b6610a52565b6040516102c391906117ce565b60405180910390f35b6102e660048036038101906102e19190611778565b610a6c565b005b61030260048036038101906102fd919061192c565b610c90565b60405161030f91906117ce565b60405180910390f35b610320610cd6565b005b61032a610e04565b6040516103379190611871565b60405180910390f35b61035a6004803603810190610355919061192c565b610e94565b005b610376600480360381019061037191906118bb565b611206565b6040516103839190611913565b60405180910390f35b610394611221565b005b61039e611336565b6040516103ab91906117ce565b60405180910390f35b6103bc611413565b6040516103c991906117ce565b60405180910390f35b6103ec60048036038101906103e79190611778565b611472565b005b6103f661164a565b60405161040391906117ce565b60405180910390f35b61042660048036038101906104219190611778565b611698565b60405161043391906117ce565b60405180910390f35b6002602052815f5260405f20602052805f5260405f205f91509150505481565b60606004805461046b90611a34565b80601f016020809104026020016040519081016040528092919081815260200182805461049790611a34565b80156104e25780601f106104b9576101008083540402835291602001916104e2565b820191905f5260205f20905b8154815290600101906020018083116104c557829003601f168201915b5050505050905090565b5f8015156001151514610534576040517f08c379a000000000000000000000000000000000000000000000000000000000815260040161052b90611ad4565b60405180910390fd5b92915050565b5f600354905090565b5f804290505f6201518090505f818361055c9190611b1f565b90505f610e108261056d9190611b1f565b90505f603c8261057d9190611b1f565b9050809550505050505090565b5f602052805f5260405f205f91509050805f015f9054906101000a900473ffffffffffffffffffffffffffffffffffffffff1690806001015f9054906101000a900473ffffffffffffffffffffffffffffffffffffffff16908060010160149054906101000a900460ff1690806003015f9054906101000a900460ff16908060040154905085565b5f8160025f8673ffffffffffffffffffffffffffffffffffffffff1673ffffffffffffffffffffffffffffffffffffffff1681526020019081526020015f205f3373ffffffffffffffffffffffffffffffffffffffff1673ffffffffffffffffffffffffffffffffffffffff1681526020019081526020015f205410156106ce576040517f08c379a00000000000000000000000000000000000000000000000000000000081526004016106c590611b99565b60405180910390fd5b5f803373ffffffffffffffffffffffffffffffffffffffff1673ffffffffffffffffffffffffffffffffffffffff1681526020019081526020015f2060010160149054906101000a900460ff1661075a576040517f08c379a000000000000000000000000000000000000000000000000000000000815260040161075190611c01565b60405180910390fd5b5f803373ffffffffffffffffffffffffffffffffffffffff1673ffffffffffffffffffffffffffffffffffffffff1681526020019081526020015f206001015f9054906101000a900473ffffffffffffffffffffffffffffffffffffffff1673ffffffffffffffffffffffffffffffffffffffff168473ffffffffffffffffffffffffffffffffffffffff1614610826576040517f08c379a000000000000000000000000000000000000000000000000000000000815260040161081d90611c01565b60405180910390fd5b8160025f8673ffffffffffffffffffffffffffffffffffffffff1673ffffffffffffffffffffffffffffffffffffffff1681526020019081526020015f205f3373ffffffffffffffffffffffffffffffffffffffff1673ffffffffffffffffffffffffffffffffffffffff1681526020019081526020015f205f8282546108ad9190611c4c565b925050819055508160015f8573ffffffffffffffffffffffffffffffffffffffff1673ffffffffffffffffffffffffffffffffffffffff1681526020019081526020015f205f8282546109009190611c7f565b92505081905550600190509392505050565b6001602052805f5260405f205f915090505481565b8060015f8573ffffffffffffffffffffffffffffffffffffffff1673ffffffffffffffffffffffffffffffffffffffff1681526020019081526020015f205410156109a7576040517f08c379a000000000000000000000000000000000000000000000000000000000815260040161099e90611cfc565b60405180910390fd5b8060015f8573ffffffffffffffffffffffffffffffffffffffff1673ffffffffffffffffffffffffffffffffffffffff1681526020019081526020015f205f8282546109f39190611c4c565b925050819055508060015f8473ffffffffffffffffffffffffffffffffffffffff1673ffffffffffffffffffffffffffffffffffffffff1681526020019081526020015f205f828254610a469190611c7f565b92505081905550505050565b5f804290506201518081610a669190611d1a565b91505090565b5f805f8373ffffffffffffffffffffffffffffffffffffffff1673ffffffffffffffffffffffffffffffffffffffff1681526020019081526020015f2090508273ffffffffffffffffffffffffffffffffffffffff16815f015f9054906101000a900473ffffffffffffffffffffffffffffffffffffffff1673ffffffffffffffffffffffffffffffffffffffff1614610b3b576040517f08c379a0000000000000000000000000000000000000000000000000000000008152600401610b3290611d94565b60405180910390fd5b8060010160149054906101000a900460ff1615610b8d576040517f08c379a0000000000000000000000000000000000000000000000000000000008152600401610b8490611dfc565b60405180910390fd5b60018160010160146101000a81548160ff02191690831515021790555082816001015f6101000a81548173ffffffffffffffffffffffffffffffffffffffff021916908373ffffffffffffffffffffffffffffffffffffffff1602179055505f805f8573ffffffffffffffffffffffffffffffffffffffff1673ffffffffffffffffffffffffffffffffffffffff1681526020019081526020015f20905060018160010160146101000a81548160ff02191690831515021790555082816001015f6101000a81548173ffffffffffffffffffffffffffffffffffffffff021916908373ffffffffffffffffffffffffffffffffffffffff16021790555050505050565b5f60015f8373ffffffffffffffffffffffffffffffffffffffff1673ffffffffffffffffffffffffffffffffffffffff1681526020019081526020015f20549050919050565b5f805f3373ffffffffffffffffffffffffffffffffffffffff1673ffffffffffffffffffffffffffffffffffffffff1681526020019081526020015f2090508060010160149054906101000a900460ff16610d66576040517f08c379a0000000000000000000000000000000000000000000000000000000008152600401610d5d90611e64565b60405180910390fd5b5f805f836001015f9054906101000a900473ffffffffffffffffffffffffffffffffffffffff1673ffffffffffffffffffffffffffffffffffffffff1673ffffffffffffffffffffffffffffffffffffffff1681526020019081526020015f2090505f8260010160146101000a81548160ff0219169083151502179055505f8160010160146101000a81548160ff0219169083151502179055505050565b606060058054610e1390611a34565b80601f0160208091040260200160405190810160405280929190818152602001828054610e3f90611a34565b8015610e8a5780601f10610e6157610100808354040283529160200191610e8a565b820191905f5260205f20905b815481529060010190602001808311610e6d57829003601f168201915b5050505050905090565b5f805f3373ffffffffffffffffffffffffffffffffffffffff1673ffffffffffffffffffffffffffffffffffffffff1681526020019081526020015f2090508060010160149054906101000a900460ff1615610f25576040517f08c379a0000000000000000000000000000000000000000000000000000000008152600401610f1c90611ecc565b60405180910390fd5b5f805f8473ffffffffffffffffffffffffffffffffffffffff1673ffffffffffffffffffffffffffffffffffffffff1681526020019081526020015f2090508060010160149054906101000a900460ff1615610fb6576040517f08c379a0000000000000000000000000000000000000000000000000000000008152600401610fad90611f34565b60405180910390fd5b5f805b8360020180549050811015611146578473ffffffffffffffffffffffffffffffffffffffff16846002018281548110610ff557610ff4611f52565b5b905f5260205f20015f9054906101000a900473ffffffffffffffffffffffffffffffffffffffff1673ffffffffffffffffffffffffffffffffffffffff1603611133576001915083600201600185600201805490506110549190611c4c565b8154811061106557611064611f52565b5b905f5260205f20015f9054906101000a900473ffffffffffffffffffffffffffffffffffffffff168460020182815481106110a3576110a2611f52565b5b905f5260205f20015f6101000a81548173ffffffffffffffffffffffffffffffffffffffff021916908373ffffffffffffffffffffffffffffffffffffffff160217905550836002018054806110fc576110fb611f7f565b5b600190038181905f5260205f20015f6101000a81549073ffffffffffffffffffffffffffffffffffffffff02191690559055611146565b808061113e90611fac565b915050610fb9565b50801561115c576111573385610a6c565b611200565b8160020133908060018154018082558091505060019003905f5260205f20015f9091909190916101000a81548173ffffffffffffffffffffffffffffffffffffffff021916908373ffffffffffffffffffffffffffffffffffffffff16021790555083835f015f6101000a81548173ffffffffffffffffffffffffffffffffffffffff021916908373ffffffffffffffffffffffffffffffffffffffff1602179055505b50505050565b5f80339050611216818585610927565b600191505092915050565b5f61122a610a52565b90505f805f3373ffffffffffffffffffffffffffffffffffffffff1673ffffffffffffffffffffffffffffffffffffffff1681526020019081526020015f2090508181600401819055506001816003015f6101000a81548160ff0219169083151502179055505f80826001015f9054906101000a900473ffffffffffffffffffffffffffffffffffffffff1673ffffffffffffffffffffffffffffffffffffffff1673ffffffffffffffffffffffffffffffffffffffff1681526020019081526020015f206003015f9054906101000a900460ff16156113325761133133826001015f9054906101000a900473ffffffffffffffffffffffffffffffffffffffff16611472565b5b5050565b5f60025f3373ffffffffffffffffffffffffffffffffffffffff1673ffffffffffffffffffffffffffffffffffffffff1681526020019081526020015f205f805f3373ffffffffffffffffffffffffffffffffffffffff1673ffffffffffffffffffffffffffffffffffffffff1681526020019081526020015f206001015f9054906101000a900473ffffffffffffffffffffffffffffffffffffffff1673ffffffffffffffffffffffffffffffffffffffff1673ffffffffffffffffffffffffffffffffffffffff1681526020019081526020015f2054905090565b5f804290505f6201518090505f818361142c9190611b1f565b90505f610e108261143d9190611b1f565b90505f603c8261144d9190611d1a565b9050603c601e8261145e9190611c7f565b6114689190611b1f565b9550505050505090565b5f805f8473ffffffffffffffffffffffffffffffffffffffff1673ffffffffffffffffffffffffffffffffffffffff1681526020019081526020015f2090505f805f8473ffffffffffffffffffffffffffffffffffffffff1673ffffffffffffffffffffffffffffffffffffffff1681526020019081526020015f2090505f826003015f6101000a81548160ff0219169083151502179055505f816003015f6101000a81548160ff021916908315150217905550606460025f8673ffffffffffffffffffffffffffffffffffffffff1673ffffffffffffffffffffffffffffffffffffffff1681526020019081526020015f205f8573ffffffffffffffffffffffffffffffffffffffff1673ffffffffffffffffffffffffffffffffffffffff1681526020019081526020015f205f8282546115ae9190611c7f565b92505081905550606460025f8573ffffffffffffffffffffffffffffffffffffffff1673ffffffffffffffffffffffffffffffffffffffff1681526020019081526020015f205f8673ffffffffffffffffffffffffffffffffffffffff1673ffffffffffffffffffffffffffffffffffffffff1681526020019081526020015f205f82825461163d9190611c7f565b9250508190555050505050565b5f804290505f6201518090505f81836116639190611b1f565b90505f610e10826116749190611d1a565b905060186003826116859190611c7f565b61168f9190611b1f565b94505050505090565b5f60025f8473ffffffffffffffffffffffffffffffffffffffff1673ffffffffffffffffffffffffffffffffffffffff1681526020019081526020015f205f8373ffffffffffffffffffffffffffffffffffffffff1673ffffffffffffffffffffffffffffffffffffffff1681526020019081526020015f2054905092915050565b5f80fd5b5f73ffffffffffffffffffffffffffffffffffffffff82169050919050565b5f6117478261171e565b9050919050565b6117578161173d565b8114611761575f80fd5b50565b5f813590506117728161174e565b92915050565b5f806040838503121561178e5761178d61171a565b5b5f61179b85828601611764565b92505060206117ac85828601611764565b9150509250929050565b5f819050919050565b6117c8816117b6565b82525050565b5f6020820190506117e15f8301846117bf565b92915050565b5f81519050919050565b5f82825260208201905092915050565b5f5b8381101561181e578082015181840152602081019050611803565b5f8484015250505050565b5f601f19601f8301169050919050565b5f611843826117e7565b61184d81856117f1565b935061185d818560208601611801565b61186681611829565b840191505092915050565b5f6020820190508181035f8301526118898184611839565b905092915050565b61189a816117b6565b81146118a4575f80fd5b50565b5f813590506118b581611891565b92915050565b5f80604083850312156118d1576118d061171a565b5b5f6118de85828601611764565b92505060206118ef858286016118a7565b9150509250929050565b5f8115159050919050565b61190d816118f9565b82525050565b5f6020820190506119265f830184611904565b92915050565b5f602082840312156119415761194061171a565b5b5f61194e84828501611764565b91505092915050565b6119608161173d565b82525050565b5f60a0820190506119795f830188611957565b6119866020830187611957565b6119936040830186611904565b6119a06060830185611904565b6119ad60808301846117bf565b9695505050505050565b5f805f606084860312156119ce576119cd61171a565b5b5f6119db86828701611764565b93505060206119ec86828701611764565b92505060406119fd868287016118a7565b9150509250925092565b7f4e487b71000000000000000000000000000000000000000000000000000000005f52602260045260245ffd5b5f6002820490506001821680611a4b57607f821691505b602082108103611a5e57611a5d611a07565b5b50919050565b7f796f752061726520667269656e647320616e6420667269656e647320646f206e5f8201527f6f74206e65656420617070726f76616c00000000000000000000000000000000602082015250565b5f611abe6030836117f1565b9150611ac982611a64565b604082019050919050565b5f6020820190508181035f830152611aeb81611ab2565b9050919050565b7f4e487b71000000000000000000000000000000000000000000000000000000005f52601260045260245ffd5b5f611b29826117b6565b9150611b34836117b6565b925082611b4457611b43611af2565b5b828206905092915050565b7f796f7520617265206e6f7420616c6c6f776564000000000000000000000000005f82015250565b5f611b836013836117f1565b9150611b8e82611b4f565b602082019050919050565b5f6020820190508181035f830152611bb081611b77565b9050919050565b7f62757420796f7520617265206e6f7420667269656e64730000000000000000005f82015250565b5f611beb6017836117f1565b9150611bf682611bb7565b602082019050919050565b5f6020820190508181035f830152611c1881611bdf565b9050919050565b7f4e487b71000000000000000000000000000000000000000000000000000000005f52601160045260245ffd5b5f611c56826117b6565b9150611c61836117b6565b9250828203905081811115611c7957611c78611c1f565b5b92915050565b5f611c89826117b6565b9150611c94836117b6565b9250828201905080821115611cac57611cab611c1f565b5b92915050565b7f696e73756666696369656e742066756e647300000000000000000000000000005f82015250565b5f611ce66012836117f1565b9150611cf182611cb2565b602082019050919050565b5f6020820190508181035f830152611d1381611cda565b9050919050565b5f611d24826117b6565b9150611d2f836117b6565b925082611d3f57611d3e611af2565b5b828204905092915050565b7f20686520646f65736e74206c696b6520796f7520616e796d6f7265203a2800005f82015250565b5f611d7e601e836117f1565b9150611d8982611d4a565b602082019050919050565b5f6020820190508181035f830152611dab81611d72565b9050919050565b7f20686520666f756e6420616e6f74686572206f6e65203a2800000000000000005f82015250565b5f611de66018836117f1565b9150611df182611db2565b602082019050919050565b5f6020820190508181035f830152611e1381611dda565b9050919050565b7f2062757420796f7520646f6e74206861766520667269656e6473203a280000005f82015250565b5f611e4e601d836117f1565b9150611e5982611e1a565b602082019050919050565b5f6020820190508181035f830152611e7b81611e42565b9050919050565b7f41726520796f75206e6f6e2d6d6f6e6f67616d6f75733f0000000000000000005f82015250565b5f611eb66017836117f1565b9150611ec182611e82565b602082019050919050565b5f6020820190508181035f830152611ee381611eaa565b9050919050565b7f6973206865206e6f6e2d6d6f6e6f67616d6f75733f00000000000000000000005f82015250565b5f611f1e6015836117f1565b9150611f2982611eea565b602082019050919050565b5f6020820190508181035f830152611f4b81611f12565b9050919050565b7f4e487b71000000000000000000000000000000000000000000000000000000005f52603260045260245ffd5b7f4e487b71000000000000000000000000000000000000000000000000000000005f52603160045260245ffd5b5f611fb6826117b6565b91507fffffffffffffffffffffffffffffffffffffffffffffffffffffffffffffffff8203611fe857611fe7611c1f565b5b60018201905091905056fea2646970667358221220b3d3add4b867da0c91b036b24611d55f593dd71e7bb42c2948c0ca98d14ebbca64736f6c63430008140033",
  "linkReferences": {},
  "deployedLinkReferences": {}
}